:020000040800F2
:10000000501A002065010008A7020008A30200089A
:10001000A50200089F020008B313000800000000BA
:10002000000000000000000000000000771200083F
:10003000A102000800000000CB01000831130008F5
:100040007F0100087F0100087F0100087F01000890
:100050007F0100087F0100087F0100087F01000880
:100060007F0100087F0100087F0100087F01000870
:100070007F0100087F0100087F0100087F01000860
:100080007F0100087F0100087F0100087F01000850
:100090007F0100087F0100087F0100087F01000840
:1000A0007F0100087F0100087F0100087F01000830
:1000B0007F0100087F0100087F0100087F01000820
:1000C0007F0100087F0100087F0100087F01000810
:1000D0007F010008B11300087F0100087F010008BC
:1000E0007F0100087F0100087F0100080000000078
:1000F0000000000000000000000000000000000000
:1001000000000000000000007F0100087F010008DF
:100110007F0100087F0100087F0100087F010008BF
:100120007F0100087F0100087F0100087F010008AF
:100130007F0100087F0100087F0100087F0100089F
:100140007F0100087F0100087F0100087F0100088F
:10015000DFF80CD000F080F800480047D513000805
:10016000501A00200648804706480047FEE7FEE791
:10017000FEE7FEE7FEE7FEE7FEE7FEE7FEE7FEE757
:100180005513000851010008EFF3108072B6704754
:1001900080F3108870471D484FF0FF010170002068
:1001A00080F309881A48012101701A484FF08051E4
:1001B000016062B6FEE717484FF08051016070475A
:1001C00014484FF080510160704772B6EFF3098018
:1001D00028B1203880E8F00F0F490968086000B5A1
:1001E0000E4880475DF804EB0D480E490A7802700E
:1001F00009480D490A680260106890E8F00F203045
:1002000080F309884EF0040E62B6704722ED00E0DC
:100210001F00002004ED00E0380000204109000824
:100220001C0000201D0000204000002072B6704716
:1002300062B67047EFF3108072B6704780F3108893
:100240007047B0FA80F0704790FAA0F0704730BF66
:10025000704720BF70470000064C074D06E0E0687D
:1002600040F0010394E8070098471034AC42F6D3FD
:10027000FFF772FF301500085015000870477047EF
:10028000704700F051FD00F0E3F900231A46012108
:10029000184600F08DFBF8E7704770477047FEE79F
:1002A0007047FEE7FEE770477047000070B5050035
:1002B0000E46144605D036B10E48807828B112207B
:1002C0000DE004200BE00C2009E02878012808D07C
:1002D000022806D0032804D0042802D00120107080
:1002E00070BDFFF751FF6E61FFF752FF00202070D5
:1002F00070BD00001800002000B587B000F074F851
:100300002C49002008638870C8700872C871C860E2
:10031000C8618861486148708871024601F1340300
:100320009854521CD2B2082AFAD3087148718862D4
:10033000086200F005FE00F0D7FD00F0AFFD00F010
:1003400041FE00F065FE1C480DF1040C0323002261
:100350002021ACE80F004FF6FF73009300F17C0200
:100360003F230021154800F08FF905AA14A13F2072
:1003700000F0E0F916480DF1040C0323002240219F
:10038000ACE80F004FF6FE73009300F1FC023E2331
:100390000021104800F078F905AA0FA13E2000F0D6
:1003A000C9F900F0ADFB00F025F807B05DF804EBEB
:1003B000FFF77ABF1800002054040020B511000890
:1003C00075432F4F532D49492049646C6500000047
:1003D00054030020D111000875432F4F532D494974
:1003E00020537461740000000149002008807047A8
:1003F000140000207047000070B5144CE07901280B
:1004000022D1FFF7C1FE0546A07820B1401E10F0B2
:10041000FF00A07013D1E07888B900F03DFE0C48D1
:10042000617950F82100A0622279914207D0C16B16
:10043000491CC163E068401CE060FFF7C1FE28462C
:10044000BDE87040FFF7A4BE70BD0000180000209A
:10045000D404002010B5094CE07901280CD1FFF735
:1004600093FEA17821B9E178FF2901D2491CE170FE
:10047000BDE81040FFF78CBE10BD00001800002042
:1004800010B50D4CE079012814D1FFF77DFEE1781D
:1004900031B1491E11F0FF01E17001D1A17819B10C
:1004A000BDE81040FFF774BEFFF772FEBDE81040D4
:1004B00000F0CEBD10BD00001800002070B505464C
:1004C0000E48007808B1002070BDFFF75DFE0146C0
:1004D0000B4804680CB1626802600846FFF758FEDA
:1004E0004CB10320207025810020606005A0606170
:1004F000204600F0C9FC204670BD00001A00002014
:10050000280000203F0000002DE9F0470600894642
:10051000144604D03078032803D001200AE00420D8
:1005200008E02648007808B1022003E0244800785B
:1005300018B10D201070BDE8F087FFF725FE0746C3
:100540003089002530B1401E30813846FFF720FE4B
:100550002570F0E7DFF86C80D8F8000010F8341F41
:1005600041F001010170457040F8049C304600F0F4
:1005700061FC3846FFF70CFE00F06AFDFFF704FE51
:100580000746D8F8000090F8351031B1022906D09E
:10059000314600F025FC0A2002E0257001E00E2023
:1005A0002070D8F8000000F11C0005764576056043
:1005B00045603846BDE8F047FFF7EABD1A00002065
:1005C0001B0000203800002070B5040004D0207803
:1005D000032803D0012070BD042070BDFFF7D4FDB7
:1005E0000546A07A58B1002301221946204600F0A2
:1005F000B9FB2846FFF7CCFD00F02AFD09E0208971
:100600004FF6FF71884206D2401C20812846FFF732
:10061000BFFD002070BD2846FFF7BAFD332070BD36
:1006200010B5094CE07900280CD100F035FD607957
:100630000649207151F82000A0622062BDE81040F8
:10064000FFF7A9BD10BD000018000020D404002051
:1006500010B5022000F076F9FFF796FD084C002156
:10066000E161FFF795FD0A2000F06CF9FFF78CFDC2
:10067000E169616101216170BDE81040FFF788BD4B
:1006800018000020FFF7FABD2DE9FE4F8046DDE996
:100690000CB6109F894692461C463F2B02D92A2051
:1006A000BDE8FE8FFFF770FD1D49097819B1FFF70E
:1006B0006FFD3C20F4E71B4D55F8241019B1FFF7EE
:1006C00067FD2820ECE7012145F82410FFF760FDC5
:1006D0003A4630460E9900F0C3FD3B465246494625
:1006E000404600F0A3F8DDE90E128DE886000146D1
:1006F0005B463246204600F0DFFC060008D0FFF7DC
:1007000043FD002145F82410FFF742FD3046C7E7BE
:10071000054800780128F9D100F09AFCF6E70000BE
:100720001A000020D40400201F000020FFF7A7BDFE
:10073000FFF7A6BD70B505460E4614463F2803D9FF
:10074000FF2D01D02A2004E02EB11248007820B1FC
:100750001220107070BD0C20FBE7FFF715FD01465D
:10076000FF2D03D10C48006890F836500B4850F824
:100770002500432540B1012806D006650846FFF74D
:1007800007FD0020207070BD0846FFF701FD2570B1
:1007900070BD00001A00002038000020D4040020A2
:1007A000FFF77ABD2DE9F04105460C463F2804D9F4
:1007B000FF2D02D02A20BDE8F08144B10020206046
:1007C0006060FFF7E1FC0146FF2D02D005E0092043
:1007D000F1E71448006890F83650134850F82500A7
:1007E00058B1012809D0028AD2070BD0D0E902768D
:1007F00000250846FFF7CCFC0AE00846FFF7C8FCD6
:100800004320D8E70846FFF7C3FC4520D3E76D1C1B
:1008100001CF0028FBD0A8002060701B8000606022
:100820000020C8E738000020D40400204FF0807377
:100830001360131F18606FF0010042F8080CA2F15A
:1008400038004FF012334FF00332C0E90A234FF063
:10085000023242624FF00132C0E907124FF011310B
:1008600081614FF0103141614FF0093101614FF06A
:100870000831C1604FF0073181604FF006314160AF
:100880004FF0053140F804194FF004310160704712
:1008900070B5274D04463F2804D005D3FF280DD05E
:1008A0002A2070BD472070BDFFF76EFC0346286804
:1008B00090F83600A04209D1012508E0FFF764FC5A
:1008C00003462868012590F8364000E000251948C5
:1008D00050F8240068B1012810D090F83820164C48
:1008E00090F83960A15CF643F6B23140A1540AD0C9
:1008F00010E01846FFF74CFC482070BD1846FFF783
:1009000047FC432070BD0D4A90F83A10147824EA51
:100910000101117010F8341F41F0080101701846F0
:10092000FFF736FC012D01D100F092FB002070BDD5
:1009300038000020D40400204C0000201E000020BD
:10094000FFF7ABBC70B5044614480078002824D1EA
:1009500013480078002820D1002C1ED0FFF714FC8B
:1009600003461048104D016891F8380091F839603D
:100970002A5CF643F6B232402A5406D10B4A91F86B
:100980003A00157825EA0000107018460C63FFF74E
:10099000FFFBBDE8704000F05BBB70BD1A0000209B
:1009A0001B000020380000204C0000201E0000200A
:1009B00070B51A4C24780CB1552070BD184C2478B1
:1009C0000CB1322070BD00B919B13B2902D95120B8
:1009D00070BD1AB13B2A02D9522070BD2BB14FF421
:1009E0007A74A34203D3532070BD542070BD5B1DA5
:1009F00064256B43B3FBF4F34FF461646043C1EBD4
:100A0000011100EB8100104400EBC00101EB00106C
:100A100003EB8000FFF796FF002070BD1A00002056
:100A20001B0000202DE9F04100F050F8FFF7ACFB6F
:100A3000254D296B491C2963FFF7AAFBE87901289A
:100A400040D1687A01264FF0000828B1012839D03A
:100A5000022803D085F80980EC6A2FE06E72FBE76C
:100A6000FFF792FB216B31B3491E216323D194F828
:100A7000341011F0370F06D001F0C80184F834109B
:100A800084F8356001E084F8358094F83410090763
:100A900011D404F13804AA79A17841EA0201A971BC
:100AA000094A217802F134026778535CA4F13804D2
:100AB00043EA070353546469FFF76AFB94F836006E
:100AC0003F28CDD1BDE8F0811800002010B5FFF718
:100AD000E5FB07480188491C89B201800A2905D332
:100AE00000210180BDE8104000F004B810BD0000F6
:100AF0001400002001480068FFF766BD6C0000206C
:100B000030B587B04FF420712E4800F051FA4021E3
:100B10002D4800F04DFA00202A4902466423441C67
:100B200000EB8000254601EBC000A4B204EB840476
:100B3000037001EBC40480F82520C46023A4046280
:100B4000A8B20F28EBD300EB800001EBC0000370CC
:100B500080F825201DA30362C2601D4802601D4865
:100B600002801D4A102010801C4801600120FFF700
:100B7000A5FC1B4C20600020FFF7A0FC194D05AA26
:100B800019A128602068FFF791FB05AA1BA128681E
:100B9000FFF78CFB1E4801AC0323002240210FC449
:100BA0004FF6FD73009300F1FC023D23002119482C
:100BB000FFF76AFD06AA18A13D20FFF7BBFD07B0AD
:100BC00030BD00008C0E00200C1200203F00000001
:100BD00064000020620000206000002070000020FF
:100BE000680000206C00002075432F4F532D4949A9
:100BF00020546D724C6F636B0000000075432F4FE3
:100C0000532D494920546D725369676E616C000021
:100C10000C110020710C000875432F4F532D4949CA
:100C200020546D7200000000032280F825200E4A37
:100C30000129126813D0816989B111440B4A4161BD
:100C400001F0070102EBC10100230A68086042B10C
:100C5000C26010618A88521C8A8003617047C16932
:100C6000EBE70122C360F7E7640000200C120020CC
:100C700008B5DFF86880DFF868901A4D6A460021F1
:100C8000D8F80000FFF740FCFFF7E4FB2868401CA1
:100C9000286000F00700022759F8304013E060692F
:100CA0002968E66888420DD1204600F01DF894F8C6
:100CB000240002280CD084F82570626812B1204606
:100CC000A16890473446002CE9D1FFF7D9FBD5E75E
:100CD00001212046FFF7A8FFEFE700006C0000208D
:100CE0000C1200206400002010B541690D4A01F08B
:100CF000070102EBC10200231468C168844203D1DA
:100D0000116029B10B6103E00469E16001B10C617C
:100D1000012180F82510C36003619088401E9080F7
:100D200010BD00000C1200200C4864210068B0FBCC
:100D3000F1F0B0F1807F0FD220F07F414FF0E02042
:100D4000491E4161064AF02111704FF00001816196
:100D50004FF0070101617047FEE70000000000202E
:100D600023ED00E0F0B50546807A1A4C4FF00007FD
:100D7000205C05EB0006F67AA45D04EBC004E6B245
:100D8000154C54F8264004F12404E7602160217CCE
:100D900021EA020121746374A4F1240409070CD42C
:100DA0000E4A94F83A3002F1340197793B4393713B
:100DB0000A5C94F839301A430A542946204600F058
:100DC0000FF8216A19B1204600F01CF8E5613046A1
:100DD000F0BD000030140008D404002018000020EA
:100DE00010B590F8382090F839408B18E443DA7A3F
:100DF000E4B22240DA7204D18A7A90F83A0082434F
:100E00008A7210BD70B510F8383F44788278E44398
:100E1000D243E4B2D5B2086809E0C618F27A22409B
:100E2000F27202D1827A2A40827251F8040F0028AD
:100E3000F3D170BD30B5134B00F10B011A6A42F8C3
:100E40001C0F147F557F625C2A436254196A827AB0
:100E500001F138018C7842EA04028272087803F1C9
:100E600034044D78225C6FEA0505EDB22A40A1F109
:100E70003801225405D191F83A00997921EA00000D
:100E8000987130BD1800002000228272114643186C
:100E9000491CC9B2DA720829F9D3704710B550213C
:100EA0000E4800F085F800200C4A0146431C1C4601
:100EB00002EB00109BB202EB03130170436008A326
:100EC000C360A0B20428F1D302EB001001704160AE
:100ED00003A1C1600348026010BD0000640D002042
:100EE0003F0000005400002010B54FF4F07111488D
:100EF00000F05EF800200F4A0146431C1C4600EB40
:100F000040009BB202EBC00003EB430302EBC303C0
:100F10000170436008A34361A0B21328EDD300EB36
:100F2000400002EBC0000170416003A14161034831
:100F3000026110BD740100203F0000001800002075
:100F400010B54FF4F261164800F032F84FF480719A
:100F5000144800F02DF812490020421C00EB400418
:100F600004EBC000D3B203EB430401EBC00004EB7D
:100F7000C30301EBC30343610BA30365D0B2152880
:100F8000EBD300EB400202EBC00001EBC00006A374
:100F90000022036542610548C262416210BD000043
:100FA000D4050020D40400203F00000018000020D9
:100FB000002203E0491E00F8012B89B20029F9D173
:100FC0007047000010B578210E48FFF7F1FF0D4A79
:100FD000002000BF00EB400102EBC10101F118034A
:100FE0004B60401C08A380B24B610428F2D300EB95
:100FF000400002EBC0000021416003A141610348B1
:10100000026010BDB40D00203F0000005800002019
:1010100010B560210C48FFF7CBFF0B4A0020411CA4
:101020008BB200EB400003EB430302EBC30342F837
:10103000303088B20328F2D300EB4000002142F8A0
:1010400030100248026010BD2C0E00205C00002011
:1010500070B5FFF799F80E4C0546A07898B9E0787E
:1010600088B900F019F80B49607951F82010A16295
:101070002279904207D0C86B401CC863E068401CCE
:10108000E060FFF798F82846BDE87040FFF780B8A9
:1010900018000020D40400200649054A01F1340359
:1010A0008879105C1B5CD25C02EBC0004871704711
:1010B00030140008180000202DE9F05F0746DDE934
:1010C0000ABA0D4690469946FFF75EF8364E746AA6
:1010D000002C64D061691C347162FFF759F844F840
:1010E0001C5CA7760025257665766561A4F1140061
:1010F00044F818ACA0E800090C9824F80C0CFB0884
:1011000024F80A9CE57707F007020120237700FA0C
:1011100003F1E276A1779040607725606560E56035
:10112000A5602562A562656220A0E562C4E90C5055
:10113000A4F11C044FEA050004EB8001401C4D653E
:1011400010F0FF00F8D02046FFF79CFA2046FFF78A
:10115000EDFAFFF719F80146154840F82740F06A04
:10116000C4E9050500B18461F46204F13804B27980
:10117000A07840EA0200B0710B48227800F13400F8
:101180006478835C43EA04038354307A00F10100FD
:1011900030720846FEF7FCFF0020BDE8F09FFEF726
:1011A000F7FF4220F9E70000180000203F00000090
:1011B000D4040020054C00BFFEF7E6FFE169491C9E
:1011C000E161FEF7E5FFFFF7B3FAF5E7180000204D
:1011D000144C02E01420FFF7B5FB60780028F9D02A
:1011E000642160690025B0FBF1F0606118B92570D9
:1011F000FF20FFF74DFBFEF7C7FFE169C4E90615C5
:10120000FEF7C6FFD4E90510B0FBF1F0C0F16400B1
:101210002070FFF7C5FA00F007F80A20FFF792FBED
:10122000E9E70000180000207CB50C4D0024694659
:101230002046FFF7B7FA58B955F8240040B1012805
:1012400006D0D0E9021201EB820181640199C164E8
:10125000641CE4B23F2CEAD97CBD0000D404002019
:10126000D30707D0920705D50022002902D004C079
:10127000491EFAE77047704729480021026842F486
:10128000803202604FF4A0630268491C12F4003FF0
:1012900001D19942F8D1016889033FD521490A68F3
:1012A00042F010020A600A6822F003020A600A682B
:1012B00042F002020A604168416041684160416851
:1012C00041F480614160C16A174A1140C162C16A3C
:1012D000164A1143C162016841F0806101600168F2
:1012E0000901FCD5416821F47C114160416841F459
:1012F000E8114160016841F0807101600168890175
:10130000FCD5416821F003014160416841F00201D0
:1013100041604168C1F381010229FAD170470000A0
:10132000001002400020024000F0FEFF44060100D1
:1013300010B5FEF729FF064A1178491C1170FEF717
:1013400027FFFFF76FFBBDE81040FFF755B800001F
:101350001A000020124810B5016841F00101016037
:101360004168104A1140416001680F4A1140016014
:10137000016821F480210160416821F4FE0141608F
:10138000016821F0A05101604FF47F0181600021CC
:10139000C162FFF771FF05494FF00060086010BDA2
:1013A000001002400000FFF0FFFFF6FE08ED00E035
:1013B0007047FEE702E008C8121F08C1002AFAD1F0
:1013C00070477047002001E001C1121F002AFBD1C5
:1013D0007047000000B587B0FEF728FFFEF78CFFCE
:1013E0000E480DF1040C032300224021ACE80F004D
:1013F00001200A4A03460090FC3200210848FFF70A
:1014000043F98DF8140005AA06A10120FFF792F90F
:10141000FFF706F907B0002000BD000074000020AF
:10142000830200085374617274205461736B00006E
:1014300000000100020001000300010002000100A1
:10144000040001000200010003000100020001008D
:10145000050001000200010003000100020001007C
:10146000040001000200010003000100020001006D
:10147000060001000200010003000100020001005B
:10148000040001000200010003000100020001004D
:10149000050001000200010003000100020001003C
:1014A000040001000200010003000100020001002D
:1014B000070001000200010003000100020001001A
:1014C000040001000200010003000100020001000D
:1014D00005000100020001000300010002000100FC
:1014E00004000100020001000300010002000100ED
:1014F00006000100020001000300010002000100DB
:1015000004000100020001000300010002000100CC
:1015100005000100020001000300010002000100BB
:1015200004000100020001000300010002000100AC
:10153000501500080000002074000000B4130008DB
:10154000C415000874000020DC190000C413000852
:1015500000A24A0400000000000000000102030491
:10156000060708090000000000000000000000005D
:10157000000000000000000000000000000000006B
:10158000000000000000000000000000000000005B
:10159000000000000000000000000000000000004B
:1015A000000000000000000000000000000000003B
:1015B000000000000000000000000000000000002B
:0415C0000000000027
:04000005080001519D
:00000001FF
